{
  "abi": [
    {
      "inputs": [
        {
          "components": [
            {
              "internalType": "address",
              "name": "target",
              "type": "address"
            },
            {
              "internalType": "bytes",
              "name": "callData",
              "type": "bytes"
            }
          ],
          "internalType": "struct Multicall3.Call[]",
          "name": "calls",
          "type": "tuple[]"
        }
      ],
      "name": "aggregate",
      "outputs": [
        {
          "internalType": "uint256",
          "name": "blockNumber",
          "type": "uint256"
        },
        {
          "internalType": "bytes[]",
          "name": "returnData",
          "type": "bytes[]"
        }
      ],
      "stateMutability": "payable",
      "type": "function"
    },
    {
      "inputs": [
        {
          "components": [
            {
              "internalType": "address",
              "name": "target",
              "type": "address"
            },
            {
              "internalType": "bool",
              "name": "allowFailure",
              "type": "bool"
            },
            {
              "internalType": "bytes",
              "name": "callData",
              "type": "bytes"
            }
          ],
          "internalType": "struct Multicall3.Call3[]",
          "name": "calls",
          "type": "tuple[]"
        }
      ],
      "name": "aggregate3",
      "outputs": [
        {
          "components": [
            {
              "internalType": "bool",
              "name": "success",
              "type": "bool"
            },
            {
              "internalType": "bytes",
              "name": "returnData",
              "type": "bytes"
            }
          ],
          "internalType": "struct Multicall3.Result[]",
          "name": "returnData",
          "type": "tuple[]"
        }
      ],
      "stateMutability": "payable",
      "type": "function"
    },
    {
      "inputs": [
        {
          "components": [
            {
              "internalType": "address",
              "name": "target",
              "type": "address"
            },
            {
              "internalType": "bool",
              "name": "allowFailure",
              "type": "bool"
            },
            {
              "internalType": "uint256",
              "name": "value",
              "type": "uint256"
            },
            {
              "internalType": "bytes",
              "name": "callData",
              "type": "bytes"
            }
          ],
          "internalType": "struct Multicall3.Call3Value[]",
          "name": "calls",
          "type": "tuple[]"
        }
      ],
      "name": "aggregate3Value",
      "outputs": [
        {
          "components": [
            {
              "internalType": "bool",
              "name": "success",
              "type": "bool"
            },
            {
              "internalType": "bytes",
              "name": "returnData",
              "type": "bytes"
            }
          ],
          "internalType": "struct Multicall3.Result[]",
          "name": "returnData",
          "type": "tuple[]"
        }
      ],
      "stateMutability": "payable",
      "type": "function"
    },
    {
      "inputs": [
        {
          "components": [
            {
              "internalType": "address",
              "name": "target",
              "type": "address"
            },
            {
              "internalType": "bytes",
              "name": "callData",
              "type": "bytes"
            }
          ],
          "internalType": "struct Multicall3.Call[]",
          "name": "calls",
          "type": "tuple[]"
        }
      ],
      "name": "blockAndAggregate",
      "outputs": [
        {
          "internalType": "uint256",
          "name": "blockNumber",
          "type": "uint256"
        },
        {
          "internalType": "bytes32",
          "name": "blockHash",
          "type": "bytes32"
        },
        {
          "components": [
            {
              "internalType": "bool",
              "name": "success",
              "type": "bool"
            },
            {
              "internalType": "bytes",
              "name": "returnData",
              "type": "bytes"
            }
          ],
          "internalType": "struct Multicall3.Result[]",
          "name": "returnData",
          "type": "tuple[]"
        }
      ],
      "stateMutability": "payable",
      "type": "function"
    },
    {
      "inputs": [],
      "name": "getBasefee",
      "outputs": [
        {
          "internalType": "uint256",
          "name": "basefee",
          "type": "uint256"
        }
      ],
      "stateMutability": "view",
      "type": "function"
    },
    {
      "inputs": [
        {
          "internalType": "uint256",
          "name": "blockNumber",
          "type": "uint256"
        }
      ],
      "name": "getBlockHash",
      "outputs": [
        {
          "internalType": "bytes32",
          "name": "blockHash",
          "type": "bytes32"
        }
      ],
      "stateMutability": "view",
      "type": "function"
    },
    {
      "inputs": [],
      "name": "getBlockNumber",
      "outputs": [
        {
          "internalType": "uint256",
          "name": "blockNumber",
          "type": "uint256"
        }
      ],
      "stateMutability": "view",
      "type": "function"
    },
    {
      "inputs": [],
      "name": "getChainId",
      "outputs": [
        {
          "internalType": "uint256",
          "name": "chainid",
          "type": "uint256"
        }
      ],
      "stateMutability": "view",
      "type": "function"
    },
    {
      "inputs": [],
      "name": "getCurrentBlockCoinbase",
      "outputs": [
        {
          "internalType": "address",
          "name": "coinbase",
          "type": "address"
        }
      ],
      "stateMutability": "view",
      "type": "function"
    },
    {
      "inputs": [],
      "name": "getCurrentBlockDifficulty",
      "outputs": [
        {
          "internalType": "uint256",
          "name": "difficulty",
          "type": "uint256"
        }
      ],
      "stateMutability": "view",
      "type": "function"
    },
    {
      "inputs": [],
      "name": "getCurrentBlockGasLimit",
      "outputs": [
        {
          "internalType": "uint256",
          "name": "gaslimit",
          "type": "uint256"
        }
      ],
      "stateMutability": "view",
      "type": "function"
    },
    {
      "inputs": [],
      "name": "getCurrentBlockTimestamp",
      "outputs": [
        {
          "internalType": "uint256",
          "name": "timestamp",
          "type": "uint256"
        }
      ],
      "stateMutability": "view",
      "type": "function"
    },
    {
      "inputs": [
        {
          "internalType": "address",
          "name": "addr",
          "type": "address"
        }
      ],
      "name": "getEthBalance",
      "outputs": [
        {
          "internalType": "uint256",
          "name": "balance",
          "type": "uint256"
        }
      ],
      "stateMutability": "view",
      "type": "function"
    },
    {
      "inputs": [],
      "name": "getLastBlockHash",
      "outputs": [
        {
          "internalType": "bytes32",
          "name": "blockHash",
          "type": "bytes32"
        }
      ],
      "stateMutability": "view",
      "type": "function"
    },
    {
      "inputs": [
        {
          "internalType": "address",
          "name": "token",
          "type": "address"
        },
        {
          "internalType": "address[]",
          "name": "accounts",
          "type": "address[]"
        }
      ],
      "name": "getTokenBalances",
      "outputs": [
        {
          "internalType": "uint256[]",
          "name": "",
          "type": "uint256[]"
        }
      ],
      "stateMutability": "view",
      "type": "function"
    },
    {
      "inputs": [
        {
          "internalType": "bool",
          "name": "requireSuccess",
          "type": "bool"
        },
        {
          "components": [
            {
              "internalType": "address",
              "name": "target",
              "type": "address"
            },
            {
              "internalType": "bytes",
              "name": "callData",
              "type": "bytes"
            }
          ],
          "internalType": "struct Multicall3.Call[]",
          "name": "calls",
          "type": "tuple[]"
        }
      ],
      "name": "tryAggregate",
      "outputs": [
        {
          "components": [
            {
              "internalType": "bool",
              "name": "success",
              "type": "bool"
            },
            {
              "internalType": "bytes",
              "name": "returnData",
              "type": "bytes"
            }
          ],
          "internalType": "struct Multicall3.Result[]",
          "name": "returnData",
          "type": "tuple[]"
        }
      ],
      "stateMutability": "payable",
      "type": "function"
    },
    {
      "inputs": [
        {
          "internalType": "bool",
          "name": "requireSuccess",
          "type": "bool"
        },
        {
          "components": [
            {
              "internalType": "address",
              "name": "target",
              "type": "address"
            },
            {
              "internalType": "bytes",
              "name": "callData",
              "type": "bytes"
            }
          ],
          "internalType": "struct Multicall3.Call[]",
          "name": "calls",
          "type": "tuple[]"
        }
      ],
      "name": "tryBlockAndAggregate",
      "outputs": [
        {
          "internalType": "uint256",
          "name": "blockNumber",
          "type": "uint256"
        },
        {
          "internalType": "bytes32",
          "name": "blockHash",
          "type": "bytes32"
        },
        {
          "components": [
            {
              "internalType": "bool",
              "name": "success",
              "type": "bool"
            },
            {
              "internalType": "bytes",
              "name": "returnData",
              "type": "bytes"
            }
          ],
          "internalType": "struct Multicall3.Result[]",
          "name": "returnData",
          "type": "tuple[]"
        }
      ],
      "stateMutability": "payable",
      "type": "function"
    }
  ],
  "bytecode": {
    "object": "0x608060405234801561001057600080fd5b50610eb9806100206000396000f3fe6080604052600436106100fe5760003560e01c80634d2301cc11610095578063a8b0574e11610064578063a8b0574e1461023a578063bce38bd714610255578063c3077fa914610268578063d802178e1461027b578063ee82ac5e146102a857600080fd5b80634d2301cc146101d957806372425d9d1461020157806382ad56cb1461021457806386d516e81461022757600080fd5b80633408e470116100d15780633408e4701461017e578063399542e9146101915780633e64a696146101b357806342cbb15c146101c657600080fd5b80630f28c97d14610103578063174dea7114610125578063252dba421461014557806327e86d6e14610166575b600080fd5b34801561010f57600080fd5b50425b6040519081526020015b60405180910390f35b610138610133366004610ae6565b6102c7565b60405161011c9190610be3565b610158610153366004610ae6565b6104b5565b60405161011c929190610bfd565b34801561017257600080fd5b50436000190140610112565b34801561018a57600080fd5b5046610112565b6101a461019f366004610c67565b610629565b60405161011c93929190610cc1565b3480156101bf57600080fd5b5048610112565b3480156101d257600080fd5b5043610112565b3480156101e557600080fd5b506101126101f4366004610d05565b6001600160a01b03163190565b34801561020d57600080fd5b5044610112565b610138610222366004610ae6565b610644565b34801561023357600080fd5b5045610112565b34801561024657600080fd5b5060405141815260200161011c565b610138610263366004610c67565b6107c6565b6101a4610276366004610ae6565b610959565b34801561028757600080fd5b5061029b610296366004610d20565b610978565b60405161011c9190610d3e565b3480156102b457600080fd5b506101126102c3366004610d82565b4090565b60606000828067ffffffffffffffff8111156102e5576102e5610d9b565b60405190808252806020026020018201604052801561032b57816020015b6040805180820190915260008152606060208201528152602001906001900390816103035790505b5092503660005b8281101561045757600085828151811061034e5761034e610db1565b6020026020010151905087878381811061036a5761036a610db1565b905060200281019061037c9190610dc7565b6040810135958601959093506103956020850185610d05565b6001600160a01b0316816103ac6060870187610de7565b6040516103ba929190610e2e565b60006040518083038185875af1925050503d80600081146103f7576040519150601f19603f3d011682016040523d82523d6000602084013e6103fc565b606091505b50602080850191909152901515808452908501351761044d5762461bcd60e51b6000526020600452601760245276135d5b1d1a58d85b1b0cce8818d85b1b0819985a5b1959604a1b60445260846000fd5b5050600101610332565b508234146104ac5760405162461bcd60e51b815260206004820152601a60248201527f4d756c746963616c6c333a2076616c7565206d69736d6174636800000000000060448201526064015b60405180910390fd5b50505092915050565b436060828067ffffffffffffffff8111156104d2576104d2610d9b565b60405190808252806020026020018201604052801561050557816020015b60608152602001906001900390816104f05790505b5091503660005b8281101561061f57600087878381811061052857610528610db1565b905060200281019061053a9190610e3e565b92506105496020840184610d05565b6001600160a01b031661055f6020850185610de7565b60405161056d929190610e2e565b6000604051808303816000865af19150503d80600081146105aa576040519150601f19603f3d011682016040523d82523d6000602084013e6105af565b606091505b508684815181106105c2576105c2610db1565b60209081029190910101529050806106165760405162461bcd60e51b8152602060048201526017602482015276135d5b1d1a58d85b1b0cce8818d85b1b0819985a5b1959604a1b60448201526064016104a3565b5060010161050c565b5050509250929050565b43804060606106398686866107c6565b905093509350939050565b6060818067ffffffffffffffff81111561066057610660610d9b565b6040519080825280602002602001820160405280156106a657816020015b60408051808201909152600081526060602082015281526020019060019003908161067e5790505b5091503660005b828110156104ac5760008482815181106106c9576106c9610db1565b602002602001015190508686838181106106e5576106e5610db1565b90506020028101906106f79190610e54565b92506107066020840184610d05565b6001600160a01b031661071c6040850185610de7565b60405161072a929190610e2e565b6000604051808303816000865af19150503d8060008114610767576040519150601f19603f3d011682016040523d82523d6000602084013e61076c565b606091505b5060208084019190915290151580835290840135176107bd5762461bcd60e51b6000526020600452601760245276135d5b1d1a58d85b1b0cce8818d85b1b0819985a5b1959604a1b60445260646000fd5b506001016106ad565b6060818067ffffffffffffffff8111156107e2576107e2610d9b565b60405190808252806020026020018201604052801561082857816020015b6040805180820190915260008152606060208201528152602001906001900390816108005790505b5091503660005b8281101561094f57600084828151811061084b5761084b610db1565b6020026020010151905086868381811061086757610867610db1565b90506020028101906108799190610e3e565b92506108886020840184610d05565b6001600160a01b031661089e6020850185610de7565b6040516108ac929190610e2e565b6000604051808303816000865af19150503d80600081146108e9576040519150601f19603f3d011682016040523d82523d6000602084013e6108ee565b606091505b5060208301521515815287156109465780516109465760405162461bcd60e51b8152602060048201526017602482015276135d5b1d1a58d85b1b0cce8818d85b1b0819985a5b1959604a1b60448201526064016104a3565b5060010161082f565b5050509392505050565b600080606061096a60018686610629565b919790965090945092505050565b60608160008167ffffffffffffffff81111561099657610996610d9b565b6040519080825280602002602001820160405280156109bf578160200160208202803683370190505b50905060005b82811015610a9057866001600160a01b03166370a082318787848181106109ee576109ee610db1565b9050602002016020810190610a039190610d05565b6040516001600160e01b031960e084901b1681526001600160a01b039091166004820152602401602060405180830381865afa158015610a47573d6000803e3d6000fd5b505050506040513d601f19601f82011682018060405250810190610a6b9190610e6a565b828281518110610a7d57610a7d610db1565b60209081029190910101526001016109c5565b5095945050505050565b60008083601f840112610aac57600080fd5b50813567ffffffffffffffff811115610ac457600080fd5b6020830191508360208260051b8501011115610adf57600080fd5b9250929050565b60008060208385031215610af957600080fd5b823567ffffffffffffffff811115610b1057600080fd5b610b1c85828601610a9a565b90969095509350505050565b6000815180845260005b81811015610b4e57602081850181015186830182015201610b32565b81811115610b60576000602083870101525b50601f01601f19169290920160200192915050565b600082825180855260208086019550808260051b84010181860160005b84811015610bd657858303601f1901895281518051151584528401516040858501819052610bc281860183610b28565b9a86019a9450505090830190600101610b92565b5090979650505050505050565b602081526000610bf66020830184610b75565b9392505050565b600060408201848352602060408185015281855180845260608601915060608160051b870101935082870160005b82811015610c5957605f19888703018452610c47868351610b28565b95509284019290840190600101610c2b565b509398975050505050505050565b600080600060408486031215610c7c57600080fd5b83358015158114610c8c57600080fd5b9250602084013567ffffffffffffffff811115610ca857600080fd5b610cb486828701610a9a565b9497909650939450505050565b838152826020820152606060408201526000610ce06060830184610b75565b95945050505050565b80356001600160a01b0381168114610d0057600080fd5b919050565b600060208284031215610d1757600080fd5b610bf682610ce9565b600080600060408486031215610d3557600080fd5b610c8c84610ce9565b6020808252825182820181905260009190848201906040850190845b81811015610d7657835183529284019291840191600101610d5a565b50909695505050505050565b600060208284031215610d9457600080fd5b5035919050565b634e487b7160e01b600052604160045260246000fd5b634e487b7160e01b600052603260045260246000fd5b60008235607e19833603018112610ddd57600080fd5b9190910192915050565b6000808335601e19843603018112610dfe57600080fd5b83018035915067ffffffffffffffff821115610e1957600080fd5b602001915036819003821315610adf57600080fd5b8183823760009101908152919050565b60008235603e19833603018112610ddd57600080fd5b60008235605e19833603018112610ddd57600080fd5b600060208284031215610e7c57600080fd5b505191905056fea264697066735822122093eef2cfbc4622bc8be26749af0dd10cfe12218d3777be784c5a1acb4d221b3364736f6c634300080d0033",
    "linkReferences": {}
  },
  "methodIdentifiers": {
    "aggregate((address,bytes)[])": "252dba42",
    "aggregate3((address,bool,bytes)[])": "82ad56cb",
    "aggregate3Value((address,bool,uint256,bytes)[])": "174dea71",
    "blockAndAggregate((address,bytes)[])": "c3077fa9",
    "getBasefee()": "3e64a696",
    "getBlockHash(uint256)": "ee82ac5e",
    "getBlockNumber()": "42cbb15c",
    "getChainId()": "3408e470",
    "getCurrentBlockCoinbase()": "a8b0574e",
    "getCurrentBlockDifficulty()": "72425d9d",
    "getCurrentBlockGasLimit()": "86d516e8",
    "getCurrentBlockTimestamp()": "0f28c97d",
    "getEthBalance(address)": "4d2301cc",
    "getLastBlockHash()": "27e86d6e",
    "getTokenBalances(address,address[])": "d802178e",
    "tryAggregate(bool,(address,bytes)[])": "bce38bd7",
    "tryBlockAndAggregate(bool,(address,bytes)[])": "399542e9"
  },
  "id": 46
}